{
  "_format": "hh-sol-artifact-1",
  "contractName": "Volcano",
  "sourceName": "contracts/Volcano.sol",
  "abi": [
    {
      "inputs": [],
      "stateMutability": "nonpayable",
      "type": "constructor"
    },
    {
      "inputs": [],
      "name": "ApprovalCallerNotOwnerNorApproved",
      "type": "error"
    },
    {
      "inputs": [],
      "name": "ApprovalQueryForNonexistentToken",
      "type": "error"
    },
    {
      "inputs": [],
      "name": "BalanceQueryForZeroAddress",
      "type": "error"
    },
    {
      "inputs": [],
      "name": "MintERC2309QuantityExceedsLimit",
      "type": "error"
    },
    {
      "inputs": [],
      "name": "MintToZeroAddress",
      "type": "error"
    },
    {
      "inputs": [],
      "name": "MintZeroQuantity",
      "type": "error"
    },
    {
      "inputs": [],
      "name": "NotCompatibleWithSpotMints",
      "type": "error"
    },
    {
      "inputs": [],
      "name": "OwnerQueryForNonexistentToken",
      "type": "error"
    },
    {
      "inputs": [],
      "name": "OwnershipNotInitializedForExtraData",
      "type": "error"
    },
    {
      "inputs": [],
      "name": "SequentialMintExceedsLimit",
      "type": "error"
    },
    {
      "inputs": [],
      "name": "SequentialUpToTooSmall",
      "type": "error"
    },
    {
      "inputs": [],
      "name": "SpotMintTokenIdTooSmall",
      "type": "error"
    },
    {
      "inputs": [],
      "name": "TokenAlreadyExists",
      "type": "error"
    },
    {
      "inputs": [],
      "name": "TransferCallerNotOwnerNorApproved",
      "type": "error"
    },
    {
      "inputs": [],
      "name": "TransferFromIncorrectOwner",
      "type": "error"
    },
    {
      "inputs": [],
      "name": "TransferToNonERC721ReceiverImplementer",
      "type": "error"
    },
    {
      "inputs": [],
      "name": "TransferToZeroAddress",
      "type": "error"
    },
    {
      "inputs": [],
      "name": "URIQueryForNonexistentToken",
      "type": "error"
    },
    {
      "anonymous": false,
      "inputs": [
        {
          "indexed": true,
          "internalType": "address",
          "name": "owner",
          "type": "address"
        },
        {
          "indexed": true,
          "internalType": "address",
          "name": "approved",
          "type": "address"
        },
        {
          "indexed": true,
          "internalType": "uint256",
          "name": "tokenId",
          "type": "uint256"
        }
      ],
      "name": "Approval",
      "type": "event"
    },
    {
      "anonymous": false,
      "inputs": [
        {
          "indexed": true,
          "internalType": "address",
          "name": "owner",
          "type": "address"
        },
        {
          "indexed": true,
          "internalType": "address",
          "name": "operator",
          "type": "address"
        },
        {
          "indexed": false,
          "internalType": "bool",
          "name": "approved",
          "type": "bool"
        }
      ],
      "name": "ApprovalForAll",
      "type": "event"
    },
    {
      "anonymous": false,
      "inputs": [
        {
          "indexed": true,
          "internalType": "uint256",
          "name": "fromTokenId",
          "type": "uint256"
        },
        {
          "indexed": false,
          "internalType": "uint256",
          "name": "toTokenId",
          "type": "uint256"
        },
        {
          "indexed": true,
          "internalType": "address",
          "name": "from",
          "type": "address"
        },
        {
          "indexed": true,
          "internalType": "address",
          "name": "to",
          "type": "address"
        }
      ],
      "name": "ConsecutiveTransfer",
      "type": "event"
    },
    {
      "anonymous": false,
      "inputs": [
        {
          "indexed": true,
          "internalType": "address",
          "name": "from",
          "type": "address"
        },
        {
          "indexed": true,
          "internalType": "address",
          "name": "to",
          "type": "address"
        },
        {
          "indexed": true,
          "internalType": "uint256",
          "name": "tokenId",
          "type": "uint256"
        }
      ],
      "name": "Transfer",
      "type": "event"
    },
    {
      "inputs": [
        {
          "internalType": "address",
          "name": "to",
          "type": "address"
        },
        {
          "internalType": "uint256",
          "name": "tokenId",
          "type": "uint256"
        }
      ],
      "name": "approve",
      "outputs": [],
      "stateMutability": "payable",
      "type": "function"
    },
    {
      "inputs": [
        {
          "internalType": "address",
          "name": "owner",
          "type": "address"
        }
      ],
      "name": "balanceOf",
      "outputs": [
        {
          "internalType": "uint256",
          "name": "",
          "type": "uint256"
        }
      ],
      "stateMutability": "view",
      "type": "function"
    },
    {
      "inputs": [
        {
          "internalType": "uint256",
          "name": "tokenId",
          "type": "uint256"
        }
      ],
      "name": "getApproved",
      "outputs": [
        {
          "internalType": "address",
          "name": "",
          "type": "address"
        }
      ],
      "stateMutability": "view",
      "type": "function"
    },
    {
      "inputs": [
        {
          "internalType": "address",
          "name": "owner",
          "type": "address"
        },
        {
          "internalType": "address",
          "name": "operator",
          "type": "address"
        }
      ],
      "name": "isApprovedForAll",
      "outputs": [
        {
          "internalType": "bool",
          "name": "",
          "type": "bool"
        }
      ],
      "stateMutability": "view",
      "type": "function"
    },
    {
      "inputs": [],
      "name": "max",
      "outputs": [
        {
          "internalType": "uint256",
          "name": "",
          "type": "uint256"
        }
      ],
      "stateMutability": "view",
      "type": "function"
    },
    {
      "inputs": [
        {
          "internalType": "uint256",
          "name": "quantity",
          "type": "uint256"
        }
      ],
      "name": "mint",
      "outputs": [],
      "stateMutability": "payable",
      "type": "function"
    },
    {
      "inputs": [],
      "name": "name",
      "outputs": [
        {
          "internalType": "string",
          "name": "",
          "type": "string"
        }
      ],
      "stateMutability": "view",
      "type": "function"
    },
    {
      "inputs": [],
      "name": "owner",
      "outputs": [
        {
          "internalType": "address",
          "name": "",
          "type": "address"
        }
      ],
      "stateMutability": "view",
      "type": "function"
    },
    {
      "inputs": [
        {
          "internalType": "uint256",
          "name": "tokenId",
          "type": "uint256"
        }
      ],
      "name": "ownerOf",
      "outputs": [
        {
          "internalType": "address",
          "name": "",
          "type": "address"
        }
      ],
      "stateMutability": "view",
      "type": "function"
    },
    {
      "inputs": [],
      "name": "prompt",
      "outputs": [
        {
          "internalType": "string",
          "name": "",
          "type": "string"
        }
      ],
      "stateMutability": "view",
      "type": "function"
    },
    {
      "inputs": [],
      "name": "promptDescription",
      "outputs": [
        {
          "internalType": "string",
          "name": "",
          "type": "string"
        }
      ],
      "stateMutability": "view",
      "type": "function"
    },
    {
      "inputs": [
        {
          "internalType": "address",
          "name": "from",
          "type": "address"
        },
        {
          "internalType": "address",
          "name": "to",
          "type": "address"
        },
        {
          "internalType": "uint256",
          "name": "tokenId",
          "type": "uint256"
        }
      ],
      "name": "safeTransferFrom",
      "outputs": [],
      "stateMutability": "payable",
      "type": "function"
    },
    {
      "inputs": [
        {
          "internalType": "address",
          "name": "from",
          "type": "address"
        },
        {
          "internalType": "address",
          "name": "to",
          "type": "address"
        },
        {
          "internalType": "uint256",
          "name": "tokenId",
          "type": "uint256"
        },
        {
          "internalType": "bytes",
          "name": "_data",
          "type": "bytes"
        }
      ],
      "name": "safeTransferFrom",
      "outputs": [],
      "stateMutability": "payable",
      "type": "function"
    },
    {
      "inputs": [
        {
          "internalType": "address",
          "name": "operator",
          "type": "address"
        },
        {
          "internalType": "bool",
          "name": "approved",
          "type": "bool"
        }
      ],
      "name": "setApprovalForAll",
      "outputs": [],
      "stateMutability": "nonpayable",
      "type": "function"
    },
    {
      "inputs": [
        {
          "internalType": "bytes4",
          "name": "interfaceId",
          "type": "bytes4"
        }
      ],
      "name": "supportsInterface",
      "outputs": [
        {
          "internalType": "bool",
          "name": "",
          "type": "bool"
        }
      ],
      "stateMutability": "view",
      "type": "function"
    },
    {
      "inputs": [],
      "name": "symbol",
      "outputs": [
        {
          "internalType": "string",
          "name": "",
          "type": "string"
        }
      ],
      "stateMutability": "view",
      "type": "function"
    },
    {
      "inputs": [
        {
          "internalType": "uint256",
          "name": "tokenId",
          "type": "uint256"
        }
      ],
      "name": "tokenURI",
      "outputs": [
        {
          "internalType": "string",
          "name": "",
          "type": "string"
        }
      ],
      "stateMutability": "view",
      "type": "function"
    },
    {
      "inputs": [],
      "name": "totalSupply",
      "outputs": [
        {
          "internalType": "uint256",
          "name": "result",
          "type": "uint256"
        }
      ],
      "stateMutability": "view",
      "type": "function"
    },
    {
      "inputs": [
        {
          "internalType": "address",
          "name": "from",
          "type": "address"
        },
        {
          "internalType": "address",
          "name": "to",
          "type": "address"
        },
        {
          "internalType": "uint256",
          "name": "tokenId",
          "type": "uint256"
        }
      ],
      "name": "transferFrom",
      "outputs": [],
      "stateMutability": "payable",
      "type": "function"
    }
  ],
  "bytecode": "0x60806040526005600a556040518060a00160405280606881526020016200258960689139600b90816200003391906200044d565b506040518060600160405280602881526020016200256160289139600c90816200005e91906200044d565b503480156200006c57600080fd5b506040518060400160405280600781526020017f566f6c63616e6f000000000000000000000000000000000000000000000000008152506040518060400160405280600281526020017f47570000000000000000000000000000000000000000000000000000000000008152508160029081620000ea91906200044d565b508060039081620000fc91906200044d565b506200010d6200019c60201b60201c565b600081905550620001236200019c60201b60201c565b62000133620001a160201b60201c565b101562000153576200015263fed8210f60e01b620001c960201b60201c565b5b505033600960006101000a81548173ffffffffffffffffffffffffffffffffffffffff021916908373ffffffffffffffffffffffffffffffffffffffff16021790555062000534565b600090565b60007fffffffffffffffffffffffffffffffffffffffffffffffffffffffffffffffff905090565b8060005260046000fd5b600081519050919050565b7f4e487b7100000000000000000000000000000000000000000000000000000000600052604160045260246000fd5b7f4e487b7100000000000000000000000000000000000000000000000000000000600052602260045260246000fd5b600060028204905060018216806200025557607f821691505b6020821081036200026b576200026a6200020d565b5b50919050565b60008190508160005260206000209050919050565b60006020601f8301049050919050565b600082821b905092915050565b600060088302620002d57fffffffffffffffffffffffffffffffffffffffffffffffffffffffffffffffff8262000296565b620002e1868362000296565b95508019841693508086168417925050509392505050565b6000819050919050565b6000819050919050565b60006200032e620003286200032284620002f9565b62000303565b620002f9565b9050919050565b6000819050919050565b6200034a836200030d565b62000362620003598262000335565b848454620002a3565b825550505050565b600090565b620003796200036a565b620003868184846200033f565b505050565b5b81811015620003ae57620003a26000826200036f565b6001810190506200038c565b5050565b601f821115620003fd57620003c78162000271565b620003d28462000286565b81016020851015620003e2578190505b620003fa620003f18562000286565b8301826200038b565b50505b505050565b600082821c905092915050565b6000620004226000198460080262000402565b1980831691505092915050565b60006200043d83836200040f565b9150826002028217905092915050565b6200045882620001d3565b67ffffffffffffffff811115620004745762000473620001de565b5b6200048082546200023c565b6200048d828285620003b2565b600060209050601f831160018114620004c55760008415620004b0578287015190505b620004bc85826200042f565b8655506200052c565b601f198416620004d58662000271565b60005b82811015620004ff57848901518255600182019150602085019450602081019050620004d8565b868310156200051f57848901516200051b601f8916826200040f565b8355505b6001600288020188555050505b505050505050565b61201d80620005446000396000f3fe6080604052600436106101145760003560e01c806370a08231116100a0578063a0712d6811610064578063a0712d681461038e578063a22cb465146103aa578063b88d4fde146103d3578063c87b56dd146103ef578063e985e9c51461042c57610114565b806370a08231146102a55780637c65d711146102e25780638da5cb5b1461030d578063953637311461033857806395d89b411461036357610114565b806318160ddd116100e757806318160ddd146101da57806323b872dd1461020557806342842e0e146102215780636352211e1461023d5780636ac5db191461027a57610114565b806301ffc9a71461011957806306fdde0314610156578063081812fc14610181578063095ea7b3146101be575b600080fd5b34801561012557600080fd5b50610140600480360381019061013b919061176c565b610469565b60405161014d91906117b4565b60405180910390f35b34801561016257600080fd5b5061016b6104fb565b604051610178919061185f565b60405180910390f35b34801561018d57600080fd5b506101a860048036038101906101a391906118b7565b61058d565b6040516101b59190611925565b60405180910390f35b6101d860048036038101906101d3919061196c565b6105eb565b005b3480156101e657600080fd5b506101ef6105fb565b6040516101fc91906119bb565b60405180910390f35b61021f600480360381019061021a91906119d6565b610648565b005b61023b600480360381019061023691906119d6565b610909565b005b34801561024957600080fd5b50610264600480360381019061025f91906118b7565b610929565b6040516102719190611925565b60405180910390f35b34801561028657600080fd5b5061028f61093b565b60405161029c91906119bb565b60405180910390f35b3480156102b157600080fd5b506102cc60048036038101906102c79190611a29565b610941565b6040516102d991906119bb565b60405180910390f35b3480156102ee57600080fd5b506102f76109d8565b604051610304919061185f565b60405180910390f35b34801561031957600080fd5b50610322610a66565b60405161032f9190611925565b60405180910390f35b34801561034457600080fd5b5061034d610a8c565b60405161035a919061185f565b60405180910390f35b34801561036f57600080fd5b50610378610b1e565b604051610385919061185f565b60405180910390f35b6103a860048036038101906103a391906118b7565b610bb0565b005b3480156103b657600080fd5b506103d160048036038101906103cc9190611a82565b610ca4565b005b6103ed60048036038101906103e89190611bf7565b610daf565b005b3480156103fb57600080fd5b50610416600480360381019061041191906118b7565b610e01565b604051610423919061185f565b60405180910390f35b34801561043857600080fd5b50610453600480360381019061044e9190611c7a565b610e7e565b60405161046091906117b4565b60405180910390f35b60006301ffc9a760e01b827bffffffffffffffffffffffffffffffffffffffffffffffffffffffff191614806104c457506380ac58cd60e01b827bffffffffffffffffffffffffffffffffffffffffffffffffffffffff1916145b806104f45750635b5e139f60e01b827bffffffffffffffffffffffffffffffffffffffffffffffffffffffff1916145b9050919050565b60606002805461050a90611ce9565b80601f016020809104026020016040519081016040528092919081815260200182805461053690611ce9565b80156105835780601f1061055857610100808354040283529160200191610583565b820191906000526020600020905b81548152906001019060200180831161056657829003601f168201915b5050505050905090565b600061059882610f12565b6105ad576105ac63cf4700e460e01b610fbe565b5b6006600083815260200190815260200160002060000160009054906101000a900473ffffffffffffffffffffffffffffffffffffffff169050919050565b6105f782826001610fc8565b5050565b60006106056110f7565b600154600054030390507fffffffffffffffffffffffffffffffffffffffffffffffffffffffffffffffff6106386110fc565b1461064557600854810190505b90565b600061065382611124565b905073ffffffffffffffffffffffffffffffffffffffff8473ffffffffffffffffffffffffffffffffffffffff161693508373ffffffffffffffffffffffffffffffffffffffff168173ffffffffffffffffffffffffffffffffffffffff16146106c8576106c763a114810060e01b610fbe565b5b6000806106d48461123d565b915091506106ea81876106e5611264565b61126c565b610715576106ff866106fa611264565b610e7e565b610714576107136359c896be60e01b610fbe565b5b5b61072286868660016112b0565b801561072d57600082555b600560008773ffffffffffffffffffffffffffffffffffffffff1673ffffffffffffffffffffffffffffffffffffffff168152602001908152602001600020600081546001900391905081905550600560008673ffffffffffffffffffffffffffffffffffffffff1673ffffffffffffffffffffffffffffffffffffffff16815260200190815260200160002060008154600101919050819055506107fb856107d78888876112b6565b7c0200000000000000000000000000000000000000000000000000000000176112de565b600460008681526020019081526020016000208190555060007c0200000000000000000000000000000000000000000000000000000000841603610881576000600185019050600060046000838152602001908152602001600020540361087f57600054811461087e578360046000838152602001908152602001600020819055505b5b505b600073ffffffffffffffffffffffffffffffffffffffff8673ffffffffffffffffffffffffffffffffffffffff161690508481887fddf252ad1be2c89b69c2b068fc378daa952ba7f163c4a11628f55a4df523b3ef600080a4600081036108f3576108f263ea553b3460e01b610fbe565b5b6109008787876001611309565b50505050505050565b61092483838360405180602001604052806000815250610daf565b505050565b600061093482611124565b9050919050565b600a5481565b60008073ffffffffffffffffffffffffffffffffffffffff168273ffffffffffffffffffffffffffffffffffffffff160361098757610986638f4eb60460e01b610fbe565b5b67ffffffffffffffff600560008473ffffffffffffffffffffffffffffffffffffffff1673ffffffffffffffffffffffffffffffffffffffff16815260200190815260200160002054169050919050565b600c80546109e590611ce9565b80601f0160208091040260200160405190810160405280929190818152602001828054610a1190611ce9565b8015610a5e5780601f10610a3357610100808354040283529160200191610a5e565b820191906000526020600020905b815481529060010190602001808311610a4157829003601f168201915b505050505081565b600960009054906101000a900473ffffffffffffffffffffffffffffffffffffffff1681565b6060600c8054610a9b90611ce9565b80601f0160208091040260200160405190810160405280929190818152602001828054610ac790611ce9565b8015610b145780601f10610ae957610100808354040283529160200191610b14565b820191906000526020600020905b815481529060010190602001808311610af757829003601f168201915b5050505050905090565b606060038054610b2d90611ce9565b80601f0160208091040260200160405190810160405280929190818152602001828054610b5990611ce9565b8015610ba65780601f10610b7b57610100808354040283529160200191610ba6565b820191906000526020600020905b815481529060010190602001808311610b8957829003601f168201915b5050505050905090565b600960009054906101000a900473ffffffffffffffffffffffffffffffffffffffff1673ffffffffffffffffffffffffffffffffffffffff163373ffffffffffffffffffffffffffffffffffffffff1614610c40576040517f08c379a0000000000000000000000000000000000000000000000000000000008152600401610c3790611d8c565b60405180910390fd5b600a5481610c4c6105fb565b610c569190611ddb565b1115610c97576040517f08c379a0000000000000000000000000000000000000000000000000000000008152600401610c8e90611e5b565b60405180910390fd5b610ca1338261130f565b50565b8060076000610cb1611264565b73ffffffffffffffffffffffffffffffffffffffff1673ffffffffffffffffffffffffffffffffffffffff16815260200190815260200160002060008473ffffffffffffffffffffffffffffffffffffffff1673ffffffffffffffffffffffffffffffffffffffff16815260200190815260200160002060006101000a81548160ff0219169083151502179055508173ffffffffffffffffffffffffffffffffffffffff16610d5e611264565b73ffffffffffffffffffffffffffffffffffffffff167f17307eab39ab6107e8899845ad3d59bd9653f200f220920489ca2b5937696c3183604051610da391906117b4565b60405180910390a35050565b610dba848484610648565b60008373ffffffffffffffffffffffffffffffffffffffff163b14610dfb57610de584848484611495565b610dfa57610df963d1a57ed660e01b610fbe565b5b5b50505050565b6060610e0c82610f12565b610e2157610e2063a14c4b5060e01b610fbe565b5b6000610e2b6115c4565b90506000815103610e4b5760405180602001604052806000815250610e76565b80610e5584611656565b604051602001610e66929190611eb7565b6040516020818303038152906040525b915050919050565b6000600760008473ffffffffffffffffffffffffffffffffffffffff1673ffffffffffffffffffffffffffffffffffffffff16815260200190815260200160002060008373ffffffffffffffffffffffffffffffffffffffff1673ffffffffffffffffffffffffffffffffffffffff16815260200190815260200160002060009054906101000a900460ff16905092915050565b600081610f1d6110f7565b11610fb857610f2a6110fc565b821115610f5457610f4d60046000848152602001908152602001600020546116a6565b9050610fb9565b600054821015610fb75760005b6000600460008581526020019081526020016000205491508103610f905782610f8990611edb565b9250610f61565b60007c01000000000000000000000000000000000000000000000000000000008216149150505b5b5b919050565b8060005260046000fd5b6000610fd383610929565b905081801561101557508073ffffffffffffffffffffffffffffffffffffffff16610ffc611264565b73ffffffffffffffffffffffffffffffffffffffff1614155b156110415761102b81611026611264565b610e7e565b6110405761103f63cfb3b94260e01b610fbe565b5b5b836006600085815260200190815260200160002060000160006101000a81548173ffffffffffffffffffffffffffffffffffffffff021916908373ffffffffffffffffffffffffffffffffffffffff160217905550828473ffffffffffffffffffffffffffffffffffffffff168273ffffffffffffffffffffffffffffffffffffffff167f8c5be1e5ebec7d5bd14f71427d1e84f3dd0314c0f7b2291e5b200ac8c7c3b92560405160405180910390a450505050565b600090565b60007fffffffffffffffffffffffffffffffffffffffffffffffffffffffffffffffff905090565b60008161112f6110f7565b1161122757600460008381526020019081526020016000205490506111526110fc565b82111561117757611162816116a6565b6112385761117663df2d9b4260e01b610fbe565b5b600081036111fe5760005482106111995761119863df2d9b4260e01b610fbe565b5b5b600460008360019003935083815260200190815260200160002054905060008103156111f95760007c010000000000000000000000000000000000000000000000000000000082160315611238576111f863df2d9b4260e01b610fbe565b5b61119a565b60007c010000000000000000000000000000000000000000000000000000000082160315611238575b61123763df2d9b4260e01b610fbe565b5b919050565b60008060006006600085815260200190815260200160002090508092508254915050915091565b600033905090565b600073ffffffffffffffffffffffffffffffffffffffff8316925073ffffffffffffffffffffffffffffffffffffffff821691508382148383141790509392505050565b50505050565b60008060e883901c905060e86112cd8686846116e7565b62ffffff16901b9150509392505050565b600073ffffffffffffffffffffffffffffffffffffffff83169250814260a01b178317905092915050565b50505050565b6000805490506000820361132e5761132d63b562e8dd60e01b610fbe565b5b61133b60008483856112b0565b61135b8361134c60008660006112b6565b611355856116f0565b176112de565b6004600083815260200190815260200160002081905550600160406001901b178202600560008573ffffffffffffffffffffffffffffffffffffffff1673ffffffffffffffffffffffffffffffffffffffff16815260200190815260200160002060008282540192505081905550600073ffffffffffffffffffffffffffffffffffffffff8473ffffffffffffffffffffffffffffffffffffffff161690506000810361141357611412632e07630060e01b610fbe565b5b6000838301905060008390506114276110fc565b600183031115611442576114416381647e3a60e01b610fbe565b5b5b808360007fddf252ad1be2c89b69c2b068fc378daa952ba7f163c4a11628f55a4df523b3ef600080a481816001019150810361144357816000819055505050506114906000848385611309565b505050565b60008373ffffffffffffffffffffffffffffffffffffffff1663150b7a026114bb611264565b8786866040518563ffffffff1660e01b81526004016114dd9493929190611f59565b6020604051808303816000875af192505050801561151957506040513d601f19601f820116820180604052508101906115169190611fba565b60015b611571573d8060008114611549576040519150601f19603f3d011682016040523d82523d6000602084013e61154e565b606091505b5060008151036115695761156863d1a57ed660e01b610fbe565b5b805181602001fd5b63150b7a0260e01b7bffffffffffffffffffffffffffffffffffffffffffffffffffffffff1916817bffffffffffffffffffffffffffffffffffffffffffffffffffffffff191614915050949350505050565b6060600b80546115d390611ce9565b80601f01602080910402602001604051908101604052809291908181526020018280546115ff90611ce9565b801561164c5780601f106116215761010080835404028352916020019161164c565b820191906000526020600020905b81548152906001019060200180831161162f57829003601f168201915b5050505050905090565b606060a060405101806040526020810391506000825281835b60011561169157600184039350600a81066030018453600a810490508061166f575b50828103602084039350808452505050919050565b60007c0100000000000000000000000000000000000000000000000000000000821673ffffffffffffffffffffffffffffffffffffffff8316119050919050565b60009392505050565b60006001821460e11b9050919050565b6000604051905090565b600080fd5b600080fd5b60007fffffffff0000000000000000000000000000000000000000000000000000000082169050919050565b61174981611714565b811461175457600080fd5b50565b60008135905061176681611740565b92915050565b6000602082840312156117825761178161170a565b5b600061179084828501611757565b91505092915050565b60008115159050919050565b6117ae81611799565b82525050565b60006020820190506117c960008301846117a5565b92915050565b600081519050919050565b600082825260208201905092915050565b60005b838110156118095780820151818401526020810190506117ee565b60008484015250505050565b6000601f19601f8301169050919050565b6000611831826117cf565b61183b81856117da565b935061184b8185602086016117eb565b61185481611815565b840191505092915050565b600060208201905081810360008301526118798184611826565b905092915050565b6000819050919050565b61189481611881565b811461189f57600080fd5b50565b6000813590506118b18161188b565b92915050565b6000602082840312156118cd576118cc61170a565b5b60006118db848285016118a2565b91505092915050565b600073ffffffffffffffffffffffffffffffffffffffff82169050919050565b600061190f826118e4565b9050919050565b61191f81611904565b82525050565b600060208201905061193a6000830184611916565b92915050565b61194981611904565b811461195457600080fd5b50565b60008135905061196681611940565b92915050565b600080604083850312156119835761198261170a565b5b600061199185828601611957565b92505060206119a2858286016118a2565b9150509250929050565b6119b581611881565b82525050565b60006020820190506119d060008301846119ac565b92915050565b6000806000606084860312156119ef576119ee61170a565b5b60006119fd86828701611957565b9350506020611a0e86828701611957565b9250506040611a1f868287016118a2565b9150509250925092565b600060208284031215611a3f57611a3e61170a565b5b6000611a4d84828501611957565b91505092915050565b611a5f81611799565b8114611a6a57600080fd5b50565b600081359050611a7c81611a56565b92915050565b60008060408385031215611a9957611a9861170a565b5b6000611aa785828601611957565b9250506020611ab885828601611a6d565b9150509250929050565b600080fd5b600080fd5b7f4e487b7100000000000000000000000000000000000000000000000000000000600052604160045260246000fd5b611b0482611815565b810181811067ffffffffffffffff82111715611b2357611b22611acc565b5b80604052505050565b6000611b36611700565b9050611b428282611afb565b919050565b600067ffffffffffffffff821115611b6257611b61611acc565b5b611b6b82611815565b9050602081019050919050565b82818337600083830152505050565b6000611b9a611b9584611b47565b611b2c565b905082815260208101848484011115611bb657611bb5611ac7565b5b611bc1848285611b78565b509392505050565b600082601f830112611bde57611bdd611ac2565b5b8135611bee848260208601611b87565b91505092915050565b60008060008060808587031215611c1157611c1061170a565b5b6000611c1f87828801611957565b9450506020611c3087828801611957565b9350506040611c41878288016118a2565b925050606085013567ffffffffffffffff811115611c6257611c6161170f565b5b611c6e87828801611bc9565b91505092959194509250565b60008060408385031215611c9157611c9061170a565b5b6000611c9f85828601611957565b9250506020611cb085828601611957565b9150509250929050565b7f4e487b7100000000000000000000000000000000000000000000000000000000600052602260045260246000fd5b60006002820490506001821680611d0157607f821691505b602082108103611d1457611d13611cba565b5b50919050565b7f4f6e6c79206f776e65722063616e2063616c6c20746869732066756e6374696f60008201527f6e00000000000000000000000000000000000000000000000000000000000000602082015250565b6000611d766021836117da565b9150611d8182611d1a565b604082019050919050565b60006020820190508181036000830152611da581611d69565b9050919050565b7f4e487b7100000000000000000000000000000000000000000000000000000000600052601160045260246000fd5b6000611de682611881565b9150611df183611881565b9250828201905080821115611e0957611e08611dac565b5b92915050565b7f35206973206d6178696d756d207468617420796f752063616e206d696e740000600082015250565b6000611e45601e836117da565b9150611e5082611e0f565b602082019050919050565b60006020820190508181036000830152611e7481611e38565b9050919050565b600081905092915050565b6000611e91826117cf565b611e9b8185611e7b565b9350611eab8185602086016117eb565b80840191505092915050565b6000611ec38285611e86565b9150611ecf8284611e86565b91508190509392505050565b6000611ee682611881565b915060008203611ef957611ef8611dac565b5b600182039050919050565b600081519050919050565b600082825260208201905092915050565b6000611f2b82611f04565b611f358185611f0f565b9350611f458185602086016117eb565b611f4e81611815565b840191505092915050565b6000608082019050611f6e6000830187611916565b611f7b6020830186611916565b611f8860408301856119ac565b8181036060830152611f9a8184611f20565b905095945050505050565b600081519050611fb481611740565b92915050565b600060208284031215611fd057611fcf61170a565b5b6000611fde84828501611fa5565b9150509291505056fea26469706673582212200003786475f03fcb679a55b333c52fc1b1cb5a388b3a1e222aa0900c403d5d3d64736f6c6343000812003361637469766520766f6c63616e6f20696e20746865206d6964646c65206f6620616e206f6365616e68747470733a2f2f62726f776e2d61636365707461626c652d63617269626f752d3839342e6d7970696e6174612e636c6f75642f697066732f516d5634686862697234535962346d757742474b4d776e66396e6b347543716f754c6e4c7161356854656a7145792f",
  "linkReferences": {},
  "deployedLinkReferences": {}
}